{
  "_format": "hh-sol-artifact-1",
  "contractName": "CeloOracle",
  "sourceName": "contracts/CeloOracle.sol",
  "abi": [
    {
      "inputs": [],
      "name": "CalldataMustHaveValidPayload",
      "type": "error"
    },
    {
      "inputs": [],
      "name": "CalldataOverOrUnderFlow",
      "type": "error"
    },
    {
      "inputs": [],
      "name": "CanNotPickMedianOfEmptyArray",
      "type": "error"
    },
    {
      "inputs": [],
      "name": "EachSignerMustProvideTheSameValue",
      "type": "error"
    },
    {
      "inputs": [],
      "name": "EmptyCalldataPointersArr",
      "type": "error"
    },
    {
      "inputs": [],
      "name": "IncorrectUnsignedMetadataSize",
      "type": "error"
    },
    {
      "inputs": [
        {
          "internalType": "uint256",
          "name": "receviedSignersCount",
          "type": "uint256"
        },
        {
          "internalType": "uint256",
          "name": "requiredSignersCount",
          "type": "uint256"
        }
      ],
      "name": "InsufficientNumberOfUniqueSigners",
      "type": "error"
    },
    {
      "inputs": [],
      "name": "InvalidCalldataPointer",
      "type": "error"
    },
    {
      "inputs": [
        {
          "internalType": "address",
          "name": "receivedSigner",
          "type": "address"
        }
      ],
      "name": "SignerNotAuthorised",
      "type": "error"
    },
    {
      "inputs": [
        {
          "internalType": "uint256",
          "name": "receivedTimestampSeconds",
          "type": "uint256"
        },
        {
          "internalType": "uint256",
          "name": "blockTimestamp",
          "type": "uint256"
        }
      ],
      "name": "TimestampFromTooLongFuture",
      "type": "error"
    },
    {
      "inputs": [
        {
          "internalType": "uint256",
          "name": "receivedTimestampSeconds",
          "type": "uint256"
        },
        {
          "internalType": "uint256",
          "name": "blockTimestamp",
          "type": "uint256"
        }
      ],
      "name": "TimestampIsTooOld",
      "type": "error"
    },
    {
      "inputs": [
        {
          "internalType": "uint256[]",
          "name": "values",
          "type": "uint256[]"
        }
      ],
      "name": "aggregateValues",
      "outputs": [
        {
          "internalType": "uint256",
          "name": "",
          "type": "uint256"
        }
      ],
      "stateMutability": "view",
      "type": "function"
    },
    {
      "inputs": [],
      "name": "celoPrice",
      "outputs": [
        {
          "internalType": "uint256",
          "name": "",
          "type": "uint256"
        }
      ],
      "stateMutability": "view",
      "type": "function"
    },
    {
      "inputs": [
        {
          "internalType": "address",
          "name": "signerAddress",
          "type": "address"
        }
      ],
      "name": "getAuthorisedSignerIndex",
      "outputs": [
        {
          "internalType": "uint8",
          "name": "",
          "type": "uint8"
        }
      ],
      "stateMutability": "view",
      "type": "function"
    },
    {
      "inputs": [],
      "name": "getUniqueSignersThreshold",
      "outputs": [
        {
          "internalType": "uint8",
          "name": "",
          "type": "uint8"
        }
      ],
      "stateMutability": "view",
      "type": "function"
    },
    {
      "inputs": [],
      "name": "updateCeloPrice",
      "outputs": [],
      "stateMutability": "nonpayable",
      "type": "function"
    },
    {
      "inputs": [
        {
          "internalType": "uint256",
          "name": "receivedTimestampMilliseconds",
          "type": "uint256"
        }
      ],
      "name": "validateTimestamp",
      "outputs": [],
      "stateMutability": "view",
      "type": "function"
    }
  ],
  "bytecode": "0x608060405234801561001057600080fd5b50611461806100206000396000f3fe608060405234801561001057600080fd5b50600436106100625760003560e01c806304149a8f146100675780633ce142f514610085578063b24ebfcc146100b5578063d4ed24e6146100e5578063f50b2efe146100ef578063f90c49241461010b575b600080fd5b61006f610129565b60405161007c9190610ead565b60405180910390f35b61009f600480360381019061009a9190610f3a565b61012f565b6040516100ac9190610f83565b60405180910390f35b6100cf60048036038101906100ca9190611123565b6101c3565b6040516100dc9190610ead565b60405180910390f35b6100ed6101d5565b005b6101096004803603810190610104919061116c565b610206565b005b610113610212565b6040516101209190610f83565b60405180910390f35b60005481565b600073f786a909d559f5dee2dc6706d8e5a81728a39ae973ffffffffffffffffffffffffffffffffffffffff168273ffffffffffffffffffffffffffffffffffffffff160361018157600090506101be565b816040517fec459bc00000000000000000000000000000000000000000000000000000000081526004016101b591906111a8565b60405180910390fd5b919050565b60006101ce8261021b565b9050919050565b6101fe7f43454c4f0000000000000000000000000000000000000000000000000000000061022d565b600081905550565b61020f816102c9565b50565b60006001905090565b600061022682610393565b9050919050565b600080600167ffffffffffffffff81111561024b5761024a610fb4565b5b6040519080825280602002602001820160405280156102795781602001602082028036833780820191505090505b5090508281600081518110610291576102906111c3565b5b6020026020010181815250506102a681610487565b6000815181106102b9576102b86111c3565b5b6020026020010151915050919050565b60006103e8826102d99190611250565b90508042101561033b57603c42826102f19190611281565b11156103365780426040517fb6b0916d00000000000000000000000000000000000000000000000000000000815260040161032d9291906112b5565b60405180910390fd5b61038f565b60b481426103499190611281565b111561038e5780426040517f0321d0b50000000000000000000000000000000000000000000000000000000081526004016103859291906112b5565b60405180910390fd5b5b5050565b6000808251036103cf576040517f9e198af900000000000000000000000000000000000000000000000000000000815260040160405180910390fd5b6103d882610499565b6000600283516103e89190611250565b90506000600284516103fa91906112de565b0361046357600061044b846001846104129190611281565b81518110610423576104226111c3565b5b602002602001015185848151811061043e5761043d6111c3565b5b60200260200101516104ec565b905060028161045a9190611250565b92505050610482565b828181518110610476576104756111c3565b5b60200260200101519150505b919050565b606061049282610502565b9050919050565b805160208201602082028101815b818110156104e557825b818110156104d95781518151808210156104cc578084528183525b50506020810190506104b1565b506020810190506104a7565b5050505050565b600081836104fa919061130f565b905092915050565b60606000825167ffffffffffffffff81111561052157610520610fb4565b5b60405190808252806020026020018201604052801561054f5781602001602082028036833780820191505090505b5090506000835167ffffffffffffffff81111561056f5761056e610fb4565b5b60405190808252806020026020018201604052801561059d5781602001602082028036833780820191505090505b5090506000845167ffffffffffffffff8111156105bd576105bc610fb4565b5b6040519080825280602002602001820160405280156105f057816020015b60608152602001906001900390816105db5790505b50905060005b855181101561068357610607610212565b60ff1667ffffffffffffffff81111561062357610622610fb4565b5b6040519080825280602002602001820160405280156106515781602001602082028036833780820191505090505b50828281518110610665576106646111c3565b5b6020026020010181905250808061067b90611343565b9150506105f6565b50600061068e610711565b9050600061069b82610822565b61ffff1690506002826106ae919061130f565b91506000604051905060005b828110156106f95760006106d18a8989898961087e565b905080856106df919061130f565b9450826040525080806106f190611343565b9150506106ba565b506107048487610b76565b9650505050505050919050565b60008060203603356602ed57011e000081166602ed57011e00001491505080610766576040517fe7764c9e00000000000000000000000000000000000000000000000000000000815260040160405180910390fd5b600080369050602911156107a6576040517f5796f78a00000000000000000000000000000000000000000000000000000000815260040160405180910390fd5b602936033590506000600960038362ffffff166107c3919061130f565b6107cd919061130f565b905060003690506002826107e1919061130f565b1115610819576040517fc30a7bd700000000000000000000000000000000000000000000000000000000815260040160405180910390fd5b80935050505090565b600080602083610832919061130f565b90506000369050811115610872576040517f5796f78a00000000000000000000000000000000000000000000000000000000815260040160405180910390fd5b80360335915050919050565b60008060008061088d85610cc3565b91509150600080600060606000600d6108bb6020886108ac919061130f565b89610d3990919063ffffffff16565b6108c5919061130f565b905060006108ec60688c6108d9919061130f565b6000369050610d4f90919063ffffffff16565b9050600061091e8360418e610901919061130f565b61090b919061130f565b6000369050610d4f90919063ffffffff16565b905061092a8382610958565b9350826020850120945081359650610974565b60006040519050818152602081019050818101604052919050565b60006109638361093d565b838382376020810391505092915050565b6109858765ffffffffffff16610206565b61099b8560418e610996919061130f565b610d65565b95506109a68661012f565b60ff1699505050505050505060008060005b84811015610b41576109cb888583610de4565b809350819450505060005b8c51811015610b2d578c81815181106109f2576109f16111c3565b5b60200260200101518403610b1a5760008b8281518110610a1557610a146111c3565b5b60200260200101519050610a298189610e6a565b158015610a595750610a39610212565b60ff168d8381518110610a4f57610a4e6111c3565b5b6020026020010151105b15610b14578c8281518110610a7157610a706111c3565b5b602002602001018051809190610a8690611343565b81525050838b8381518110610a9e57610a9d6111c3565b5b602002602001015160018f8581518110610abb57610aba6111c3565b5b6020026020010151610acd9190611281565b81518110610ade57610add6111c3565b5b602002602001018181525050610af48189610e83565b8c8381518110610b0757610b066111c3565b5b6020026020010181815250505b50610b2d565b8080610b2590611343565b9150506109d6565b508080610b3990611343565b9150506109b8565b50505081602082610b52919061130f565b610b5c919061138b565b604e610b68919061130f565b935050505095945050505050565b60606000835167ffffffffffffffff811115610b9557610b94610fb4565b5b604051908082528060200260200182016040528015610bc35781602001602082028036833780820191505090505b5090506000610bd0610212565b60ff16905060005b8551811015610cb75781858281518110610bf557610bf46111c3565b5b60200260200101511015610c5c57848181518110610c1657610c156111c3565b5b6020026020010151826040517f2b13aef5000000000000000000000000000000000000000000000000000000008152600401610c539291906112b5565b60405180910390fd5b6000610c81878381518110610c7457610c736111c3565b5b60200260200101516101c3565b905080848381518110610c9757610c966111c3565b5b602002602001018181525050508080610caf90611343565b915050610bd8565b50819250505092915050565b6000806000806000604186610cd8919061130f565b90506000610cff602083610cec919061130f565b6000369050610d4f90919063ffffffff16565b905080359350610d19600382610d4f90919063ffffffff16565b9050803592508362ffffff1695508263ffffffff16945050505050915091565b60008183610d47919061138b565b905092915050565b60008183610d5d9190611281565b905092915050565b6000806000808436038035935060208101905080359250602081019050803560001a91505060018682858560405160008152602001604052604051610dad94939291906113e6565b6020604051602081039080840390855afa158015610dcf573d6000803e3d6000fd5b50505060206040510351935050505092915050565b6000806000604e86610df6919061130f565b90506000610e37610e28602088610e0d919061130f565b876001610e1a919061130f565b610d3990919063ffffffff16565b836104ec90919063ffffffff16565b90506000610e52826000369050610d4f90919063ffffffff16565b90508035945060208101359350505050935093915050565b600080826001901b841690506000811191505092915050565b6000816001901b8317905092915050565b6000819050919050565b610ea781610e94565b82525050565b6000602082019050610ec26000830184610e9e565b92915050565b6000604051905090565b600080fd5b600080fd5b600073ffffffffffffffffffffffffffffffffffffffff82169050919050565b6000610f0782610edc565b9050919050565b610f1781610efc565b8114610f2257600080fd5b50565b600081359050610f3481610f0e565b92915050565b600060208284031215610f5057610f4f610ed2565b5b6000610f5e84828501610f25565b91505092915050565b600060ff82169050919050565b610f7d81610f67565b82525050565b6000602082019050610f986000830184610f74565b92915050565b600080fd5b6000601f19601f8301169050919050565b7f4e487b7100000000000000000000000000000000000000000000000000000000600052604160045260246000fd5b610fec82610fa3565b810181811067ffffffffffffffff8211171561100b5761100a610fb4565b5b80604052505050565b600061101e610ec8565b905061102a8282610fe3565b919050565b600067ffffffffffffffff82111561104a57611049610fb4565b5b602082029050602081019050919050565b600080fd5b61106981610e94565b811461107457600080fd5b50565b60008135905061108681611060565b92915050565b600061109f61109a8461102f565b611014565b905080838252602082019050602084028301858111156110c2576110c161105b565b5b835b818110156110eb57806110d78882611077565b8452602084019350506020810190506110c4565b5050509392505050565b600082601f83011261110a57611109610f9e565b5b813561111a84826020860161108c565b91505092915050565b60006020828403121561113957611138610ed2565b5b600082013567ffffffffffffffff81111561115757611156610ed7565b5b611163848285016110f5565b91505092915050565b60006020828403121561118257611181610ed2565b5b600061119084828501611077565b91505092915050565b6111a281610efc565b82525050565b60006020820190506111bd6000830184611199565b92915050565b7f4e487b7100000000000000000000000000000000000000000000000000000000600052603260045260246000fd5b7f4e487b7100000000000000000000000000000000000000000000000000000000600052601260045260246000fd5b7f4e487b7100000000000000000000000000000000000000000000000000000000600052601160045260246000fd5b600061125b82610e94565b915061126683610e94565b925082611276576112756111f2565b5b828204905092915050565b600061128c82610e94565b915061129783610e94565b92508282039050818111156112af576112ae611221565b5b92915050565b60006040820190506112ca6000830185610e9e565b6112d76020830184610e9e565b9392505050565b60006112e982610e94565b91506112f483610e94565b925082611304576113036111f2565b5b828206905092915050565b600061131a82610e94565b915061132583610e94565b925082820190508082111561133d5761133c611221565b5b92915050565b600061134e82610e94565b91507fffffffffffffffffffffffffffffffffffffffffffffffffffffffffffffffff82036113805761137f611221565b5b600182019050919050565b600061139682610e94565b91506113a183610e94565b92508282026113af81610e94565b915082820484148315176113c6576113c5611221565b5b5092915050565b6000819050919050565b6113e0816113cd565b82525050565b60006080820190506113fb60008301876113d7565b6114086020830186610f74565b61141560408301856113d7565b61142260608301846113d7565b9594505050505056fea2646970667358221220d3820538199898503abd3c5f04815797e9219c96e1de7a744d6afd7cc2b925ba64736f6c63430008110033",
  "linkReferences": {},
  "deployedLinkReferences": {}
}