{
  "_format": "hh-sol-artifact-1",
  "contractName": "Wall",
  "sourceName": "contracts/Wall.sol",
  "abi": [
    {
      "inputs": [
        {
          "internalType": "address",
          "name": "offsetHelperAddress_",
          "type": "address"
        },
        {
          "internalType": "address",
          "name": "poolToken_",
          "type": "address"
        }
      ],
      "stateMutability": "nonpayable",
      "type": "constructor"
    },
    {
      "inputs": [
        {
          "internalType": "string",
          "name": "text_",
          "type": "string"
        }
      ],
      "name": "draw",
      "outputs": [],
      "stateMutability": "payable",
      "type": "function"
    },
    {
      "inputs": [],
      "name": "text",
      "outputs": [
        {
          "internalType": "string",
          "name": "",
          "type": "string"
        }
      ],
      "stateMutability": "view",
      "type": "function"
    }
  ],
  "bytecode": "0x60c060405234801561001057600080fd5b50604051610b11380380610b1183398181016040528101906100329190610104565b8173ffffffffffffffffffffffffffffffffffffffff1660808173ffffffffffffffffffffffffffffffffffffffff16815250508073ffffffffffffffffffffffffffffffffffffffff1660a08173ffffffffffffffffffffffffffffffffffffffff16815250505050610144565b600080fd5b600073ffffffffffffffffffffffffffffffffffffffff82169050919050565b60006100d1826100a6565b9050919050565b6100e1816100c6565b81146100ec57600080fd5b50565b6000815190506100fe816100d8565b92915050565b6000806040838503121561011b5761011a6100a1565b5b6000610129858286016100ef565b925050602061013a858286016100ef565b9150509250929050565b60805160a0516109a861016960003960006101410152600061010501526109a86000f3fe6080604052600436106100295760003560e01c80631f1bd6921461002e578063aebba34f14610059575b600080fd5b34801561003a57600080fd5b50610043610075565b604051610050919061026c565b60405180910390f35b610073600480360381019061006e9190610307565b610103565b005b6000805461008290610383565b80601f01602080910402602001604051908101604052809291908181526020018280546100ae90610383565b80156100fb5780601f106100d0576101008083540402835291602001916100fb565b820191906000526020600020905b8154815290600101906020018083116100de57829003601f168201915b505050505081565b7f000000000000000000000000000000000000000000000000000000000000000073ffffffffffffffffffffffffffffffffffffffff1663f04ad9d77f00000000000000000000000000000000000000000000000000000000000000006040518263ffffffff1660e01b815260040161017c91906103f5565b6000604051808303816000875af115801561019b573d6000803e3d6000fd5b505050506040513d6000823e3d601f19601f820116820180604052508101906101c49190610673565b50508181600091826101d79291906108a2565b505050565b600081519050919050565b600082825260208201905092915050565b60005b838110156102165780820151818401526020810190506101fb565b60008484015250505050565b6000601f19601f8301169050919050565b600061023e826101dc565b61024881856101e7565b93506102588185602086016101f8565b61026181610222565b840191505092915050565b600060208201905081810360008301526102868184610233565b905092915050565b6000604051905090565b600080fd5b600080fd5b600080fd5b600080fd5b600080fd5b60008083601f8401126102c7576102c66102a2565b5b8235905067ffffffffffffffff8111156102e4576102e36102a7565b5b602083019150836001820283011115610300576102ff6102ac565b5b9250929050565b6000806020838503121561031e5761031d610298565b5b600083013567ffffffffffffffff81111561033c5761033b61029d565b5b610348858286016102b1565b92509250509250929050565b7f4e487b7100000000000000000000000000000000000000000000000000000000600052602260045260246000fd5b6000600282049050600182168061039b57607f821691505b6020821081036103ae576103ad610354565b5b50919050565b600073ffffffffffffffffffffffffffffffffffffffff82169050919050565b60006103df826103b4565b9050919050565b6103ef816103d4565b82525050565b600060208201905061040a60008301846103e6565b92915050565b7f4e487b7100000000000000000000000000000000000000000000000000000000600052604160045260246000fd5b61044882610222565b810181811067ffffffffffffffff8211171561046757610466610410565b5b80604052505050565b600061047a61028e565b9050610486828261043f565b919050565b600067ffffffffffffffff8211156104a6576104a5610410565b5b602082029050602081019050919050565b6104c0816103d4565b81146104cb57600080fd5b50565b6000815190506104dd816104b7565b92915050565b60006104f66104f18461048b565b610470565b90508083825260208201905060208402830185811115610519576105186102ac565b5b835b81811015610542578061052e88826104ce565b84526020840193505060208101905061051b565b5050509392505050565b600082601f830112610561576105606102a2565b5b81516105718482602086016104e3565b91505092915050565b600067ffffffffffffffff82111561059557610594610410565b5b602082029050602081019050919050565b6000819050919050565b6105b9816105a6565b81146105c457600080fd5b50565b6000815190506105d6816105b0565b92915050565b60006105ef6105ea8461057a565b610470565b90508083825260208201905060208402830185811115610612576106116102ac565b5b835b8181101561063b578061062788826105c7565b845260208401935050602081019050610614565b5050509392505050565b600082601f83011261065a576106596102a2565b5b815161066a8482602086016105dc565b91505092915050565b6000806040838503121561068a57610689610298565b5b600083015167ffffffffffffffff8111156106a8576106a761029d565b5b6106b48582860161054c565b925050602083015167ffffffffffffffff8111156106d5576106d461029d565b5b6106e185828601610645565b9150509250929050565b600082905092915050565b60008190508160005260206000209050919050565b60006020601f8301049050919050565b600082821b905092915050565b6000600883026107587fffffffffffffffffffffffffffffffffffffffffffffffffffffffffffffffff8261071b565b610762868361071b565b95508019841693508086168417925050509392505050565b6000819050919050565b600061079f61079a610795846105a6565b61077a565b6105a6565b9050919050565b6000819050919050565b6107b983610784565b6107cd6107c5826107a6565b848454610728565b825550505050565b600090565b6107e26107d5565b6107ed8184846107b0565b505050565b5b81811015610811576108066000826107da565b6001810190506107f3565b5050565b601f82111561085657610827816106f6565b6108308461070b565b8101602085101561083f578190505b61085361084b8561070b565b8301826107f2565b50505b505050565b600082821c905092915050565b60006108796000198460080261085b565b1980831691505092915050565b60006108928383610868565b9150826002028217905092915050565b6108ac83836106eb565b67ffffffffffffffff8111156108c5576108c4610410565b5b6108cf8254610383565b6108da828285610815565b6000601f83116001811461090957600084156108f7578287013590505b6109018582610886565b865550610969565b601f198416610917866106f6565b60005b8281101561093f5784890135825560018201915060208501945060208101905061091a565b8683101561095c5784890135610958601f891682610868565b8355505b6001600288020188555050505b5050505050505056fea26469706673582212203c3f6b4e00f1d18228c1b97e4a892f780df4734be03827e9e2867e7c8941378b64736f6c63430008120033",
  "linkReferences": {},
  "deployedLinkReferences": {}
}